:10800000314000061542200175F335D0085A3F4033
:108010000A000F930724824520012F839F4F5E891A
:108020000002F9233F402A000F93062482452001D5
:108030001F83CF430A02FA233150B0FFB240805A67
:108040002001F2400B002200F2D00B002100F2F0E0
:10805000FBFF2200F2400A001A00F24007002A004B
:10806000D2432900D2D31A00D2D31900B0123687D6
:10807000F2400F001002F2400F001102F2400F0018
:108080001202F2400F001302C2431402C24315024F
:10809000C2431602C24317023F401002B012348698
:1080A0003D4028000E430F41B012F688D143000036
:1080B000E1430100F14003000200E1420300F1400E
:1080C00005000400F14006000500F140070006002D
:1080D000F1420700F14009000800F1400A000900E0
:1080E000F1400B000A000A413A5028003D402800A8
:1080F0000E430F4AB012F688F1400D002800F140FF
:108100000D002900F1400D002A00F1400D002B0068
:10811000F1400D002C00F1400D002D00F1400D004C
:108120002E00B240805A2001D242FD105700D242A8
:10813000FC10560032D27E4012007F401C00B0126C
:10814000BA87B0127C884B4F4F93FB237F401C00B3
:10815000B01234884F9B20247E4012007F401C00C8
:10816000B0128687B0127C884F93FC230E4A6F4270
:10817000B012EE87B0127C884F93FC237E40120031
:108180007F501C00B012BA87B0127C884F93FC233A
:108190000E416F42B0122488F2F0FEFF210032D06F
:1081A000D000BF3F32D0F000FD3F30405C892183DA
:1081B000F140510000005D430E417F400500B012C8
:1081C000FA82F1400C0000005D430E417F40050043
:1081D000B0123E831F43F1905100000001240F4371
:1081E00021533041FFFFFFFFFFFFFFFFFFFFFFFFB6
:1081F000FFFFFFFFB240805A2001B240040260013D
:10820000B24010006201B2D03000600132D2B2D070
:108210001000620132D2304182430A0282430C02D2
:10822000B24000017201B24036016001C2430E0249
:10823000B012F4813041C2430E0282430A028243EB
:108240000C02824F0802B0121882304132D018005E
:10825000929208020C020328C2430E023041FF3FF3
:108260000F4EB0123682B0124C8230412F43B01202
:108270003682B0124C8230410F9303203E90018031
:108280000428F2F0FEFF2100FC3F0F4EB0123682B0
:10829000B0124C8230410F121F420C021F53824F0A
:1082A0000C02032092530A02083C829F0802052C0C
:1082B000D2530E02B1C0100002003F4100134E4FD6
:1082C0007C424E930334E2D31900033CF2F0FDFFED
:1082D0001900F2D219004E5E5D4218002DF25F4384
:1082E00001204F4D4FDE4E4FF2F0F7FF19007C5347
:1082F000E823F2F0FDFF190030410B120A120912B7
:108300000B4E4A4DF2F0FEFF2900F2F0FEFF210075
:10831000B012BE82494F0B930720083C6E4B1B5393
:108320004F4EB012BE827A534A93F823D2D329001B
:10833000D2D321004F4939413A413B4130410B12E0
:108340000A1209120B4E4A4DF2F0FEFF2900F2F01C
:10835000FEFF2100B012BE82494F0B930820093C5A
:108360004F43B012BE82CB4F00001B537A534A9347
:10837000F723D2D32900D2D321004F4939413A41C2
:108380003B413041F2F0FEFF2900F2F0FEFF2100F8
:10839000B012BE824F43B012BE82D2D32900D2D3D4
:1083A000210030410B120A120B3C0B4F1B534D4A5C
:1083B0007D530E4B1E536F4BB012FA824F4A0F5B28
:1083C0006A4F4A93F2233A413B4130413F409C84FB
:1083D000B012A48330413F40A384B012A483304143
:1083E0003F40D784B012A4831E430F43B012608273
:1083F0003041B012CC831E430F43B0126082E2D3EF
:108400002900E2D321003E400C000F43B0127882D5
:10841000F2F0FDFF2900F2F0FDFF2100B012D6833B
:108420003041F2F0FEFF2900F2F0FEFF2100B01211
:10843000BE82D2D32900D2D3210030410B120A12BE
:108440004A4EF2F0FEFF2900F2F0FEFF2100B012CA
:10845000BE824B4F4F4AB012BE82D2D32900D2D334
:1084600021004F4B3A413B413041F2F0FEFF2900E1
:10847000F2F0FEFF2100F2F0FDFF2900F2F0FDFF17
:108480002100F2F0FDFF1900F2F0F7FF1900B01221
:108490006C823F40AA84B012A483304102200A02B9
:1084A0002770000220080227700001FF022000024E
:1084B000210002220102230302277801E101E206E2
:1084C000300102030201062A0102030201023110F7
:1084D0000225510226090002255102200B022770B5
:1084E00000000B120A1209120812071206120512D6
:1084F000041216422002174222021442240215429C
:1085000026023FF003005E4228020FEE0F5F0F5F6E
:108510000846094718EFA68519EFA8850E440F45B0
:108520001EE21C021FE21E02085E096F0E460F4784
:108530000E5E0F6F0E5E0F6F0E5E0F6F0E5E0F6F93
:108540000B440C4512C30C100B100C110B100C112A
:108550000B100EEB0FEC0A440B450A5A0B6B0A5A30
:108560000B6B0C460D4712C30D100C100D110C10A7
:108570000D110C100D110C100D110C100AEC0BED5F
:108580000E5A0F6B0C480D490CEE0DEF824C2A026F
:10859000824D2C0234413541364137413841394111
:1085A0003A413B413041FFFFFFFFFFFFFFFFFFFF6D
:1085B000FFFFFFFFFFFF0B126B4F3E40C8000F4352
:1085C000B01260824F4B3B4130410B120A1209122C
:1085D0000812694F1F53684F1F536A4F5B4F0100CA
:1085E0003E4032000F43B01260820D488D100E499C
:1085F0008E100E5E0E5E0E5E0E5E0DDE0E4A0E5E7E
:108600000E5E0E5E0E5E0DDE0F4B0FDD3841394102
:108610003A413B413041B24000A52C01B24002A595
:10862000280182430010B24000A52801B24010A5E5
:108630002C0130410B120B4FB24082A52A01B0121F
:108640001686B24000A52C01B24040A52801E24B9D
:108650000110D24B01000210D24B02000310D24B8A
:1086600003000410D24B04000510D24B0500061085
:10867000D24B06000710D24B07000810B24000A5ED
:108680002801B24010A52C013E4064000F43B012F7
:1086900060823B4130415F4203001FF3FC275F4291
:1086A0006600F2F0FEFF030030414F4330415E426E
:1086B00003002EF3FC27C24F67005F4203002FF335
:1086C000FC2730415E4203002EF3FC27C24F6700B7
:1086D0005F4203002FF3FC27304130416F93132496
:1086E0007F900300032C5F931F20063C7F900300C4
:1086F00011246F921920123CF24006006300F240F0
:1087000082FF62003041F24003006300F24041000A
:1087100062003041F240A0FF6300033CF2401D00C4
:108720006300D24362003041F2408AFF6200C243DC
:10873000630030413041F2D030001B00F2D0100015
:108740001A00C2436000F2D080FF61007F40050044
:10875000B012DC86C2436400F2F0FEFF61003041DB
:10876000F293F9100924C2435600D242F91057007F
:10877000D242F81056003041F2408FFF5700F240CD
:108780007F0056003041F2D006001B00D243690042
:10879000F2400F006800F24081FF6900C24E6A009B
:1087A000C2436B004F4F824F1A01F2F0FEFF690087
:1087B000F2426C00E24201003041F2D006001B00A0
:1087C000D2436900F2400F006800F24081FF690067
:1087D000C24E6A00C2436B004F4F824F1A01F2F043
:1087E000FEFF6900F2426C00F24201003041824E0D
:1087F00032025F930E20C2432E0232C20343E2D301
:1088000069005F4269002FF3FC23E2D2690032D293
:1088100030416F9306286F83C24F2E02E2D3690066
:108820003041FF3F824E3002C24F2E02F2D0120082
:10883000690030415E426C005E4201001C421A0138
:10884000F2F0F7FF6C004F4F824F1A01F2F0F3FF86
:10885000010032C20343F2D0160069005E42690093
:108860002EF2FC235D426D0032D24F4C824F1A0132
:108870003DF25F430D9E01244F4E30415F426D003B
:108880007FF0100030415F426D003FF20524E2D2DC
:108890006900F2F0F7FF6D0030415F4203002FF2F4
:1088A00015241F423202C2932E020820E2D2690030
:1088B000DF426E000000925332023041DF426E0010
:1088C000000092533202F2532E0230415F422E02D8
:1088D0004F930620E2D26900F2F0F7FF0300304127
:1088E0001E423002E24E6F001E53824E30027F5312
:1088F000C24F2E0230410B120A12091208120B4FFE
:108900003D900600082C043CCB4E00001B533D5309
:108910000D93FA231E3C4A4E0A9303240C4A8C10F2
:108920000ADC1FB305243D53CF4E00000B4F1B53F1
:108930000C4D12C30C10084B094C884A00002853F8
:108940003953FB230C5C0C5B1DF30D990224CC4EB8
:0E8950000000384139413A413B4130410013AB
:0A895E00FFFFFFFFFFFFFFFF001007
:10FFE000AA81AA81AA81AA81AA81AA81AA81AA81B9
:10FFF000AA819682AA81AA81AA81AA81AA81008067
:040000030000800079
:00000001FF
